S0180000626C7565746F6F74685F6D6F64756C652E7372656351
S11300000C942A000C9434000C9434000C943400A6
S11300100C9434000C9434000C9434000C9434008C
S11300200C9434000C9434000C9434000C9434007C
S11300300C9434000C9434000C9434000C9434006C
S11300400C9434000C9434000C9434000C9434005C
S11300500C94340011241FBECFE5D4E0DEBFCDBF25
S11300600E9436000C944F000C940000D398DB9847
S11300700E9444000E944B00813311F4DB9AFACFB2
S11300808033C1F7DB98F6CF83E389B988E18AB975
S113009086E880BD08955F9BFECF8CB10895F894E7
S10500A0FFCF8C
S9030000FC
